:100000000C9492010C94BA010C94BA010C94BA01AC
:100010000C94BA010C94BA010C94BA010C94BA0174
:100020000C94BA010C94BA010C9474100C94F11055
:100030000C94BA010C94BA010C94BA010C94BA0154
:100040000C94BA010C9488140C94BA010C94BA0163
:100050000C94BA010C94BA010C94BA010C942313B9
:100060000C94BA010C94BA010C94BA010C94BA0124
:100070000C94BA010C94BA010C94BA010C94BA0114
:100080000C94BA010C94BA010C94BA010C94BA0104
:100090000C946D130C94BA010C94BA010C94BA012F
:1000A0000C94BA010C94BA010C94BA01000000003F
:1000B000240027002A002D00300000000000250049
:1000C00028002B002E003100000000002300260035
:1000D00029002C002F000404040404030405020278
:1000E00002020403020202020606060606060404D1
:1000F0000202020404040802011040804010204063
:10010000804080080204018040201002011080100D
:10011000204040200000000200090F0000030401FD
:10012000000C0000000000000000000000000000C3
:10013000000000080B000202020000090400000198
:10014000020200000524001001052401010104241D
:10015000020605240600010705810310004009047A
:100160000100020A00000007050202400000070526
:1001700083024000000403090412010002EF02019F
:100180004041233680000101020301417264756918
:100190006E6F204C4C430041726475696E6F204C49
:1001A000656F6E6172646F00070605040100080A3E
:1001B0000B0C0D09656E636F64657273636F756E0A
:1001C0007400636F6E73006675656C0074656D70A6
:1001D00000626F6F73740073706565646F007461A3
:1001E0006368006D637574797065006C6973740081
:1001F00000D57FAAFE2B815429FC5683D702A87D07
:1002000052872DF8AC79D3067BAE04D18550FA2FF6
:10021000A471DB0E5A8F25F08D58F22773A60CD9E6
:10022000F623895C08DD77A2DF0AA07521F45E8BD6
:100230009D48E23763B61CC9B461CB1E4A9F35E0C6
:10024000CF1AB06531E44E9BE633994C18CD67B2B6
:1002500039EC4693C712B86D10C56FBAEE3B9144A6
:100260006BBE14C19540EA3F42973DE8BC69C31696
:10027000EF3A904511C46EBBC613B96C38ED479286
:10028000BD68C21743963CE99441EB3E6ABF15C076
:100290004B9E34E1B560CA1F62B71DC89C49E33666
:1002A00019CC66B3E732984D30E54F9ACE1BB16456
:1002B00072A70DD88C59F3265B8E24F1A570DA0F46
:1002C00020F55F8ADE0BA17409DC76A3F722885D36
:1002D000D603A97C28FD5782FF2A805501D47EAB26
:1002E0008451FB2E7AAF05D0AD78D20753862CF916
:1002F00005010905A101A1008503050919012920AE
:10030000150025017501952081020501093009318B
:10031000093309341581257F750895048102C0C011
:100320004515351F11241FBECFEFDAE0DEBFCDBF6C
:1003300024E0A4E1B2E001C01D92A137B207E1F7C9
:1003400012E0A0E0B1E0ECE1F4E402C005900D920F
:10035000A431B107D9F711E0C1E9D1E004C0219778
:10036000FE010E94E01FC039D107C9F70E94801624
:100370000C9401220C940000CF93DF93FC01818147
:1003800090917D03482F490F5527551F483051053F
:100390009CF5A281B381109709F529E733E03383F7
:1003A0002283208120937B0380937C0380917E03B2
:1003B000820F808320917F03A22FB09180038A2F28
:1003C000821B8917E8F481813D91C82FD0E0C85E77
:1003D000DE4F38838F5F8183F2CFD90118962D913C
:1003E0003C91199721153105C1F729E733E019969A
:1003F0003C932E931897D5CF80E0DF91CF9108954D
:1004000081E0FBCF96E0899FD0011124A056BC4F1C
:1004100090967C936E935F9791E091969C939197C1
:10042000E0910D04F0910E0490910C04992339F0A1
:10043000309751F0811108C08091BC030994309726
:1004400019F05C968C91FACF089590915C049032EB
:10045000A1F020915B04290F3327331F203231058F
:1004600010F0205231093327F901EF5DFB4F828FE5
:100470009F5F90935C0481E0089580E0089520914F
:100480005C042223C1F0E0915B04F0E0EF5DFB4FE0
:10049000228DFC01208380915B048F5F80935B043D
:1004A00090915C04915090935C04803211F410920E
:1004B0005B0481E0089580E00895FC0180910F03C2
:1004C000882311F13FB7F89482E08093E9002091EE
:1004D000F200822F90E01816190614F481E090E0E3
:1004E000882339F0289844E640930E034091F100A8
:1004F0004083222339F02091F200211103C02BE622
:100500002093E8003FBF08958FEF9FEF089583E0A9
:100510008093E9008091F200882319F08AE38093A8
:10052000E80008950C9487020F9370E0FB01EE0F32
:10053000FF1FE60FF71FE452FD4F40832183028324
:100540000F91089580E991E008954091AA02509199
:10055000AB022091A8023091A90242175307B4F4CC
:100560009091E8009570E1F39091E80092FD19C038
:100570008093F1008091AA029091AB0201968F7353
:100580009927892B19F48EEF8093E8008091AA02B5
:100590009091AB0201969093AB028093AA0281E006
:1005A000089580E00895EF92FF920F931F93CF93E9
:1005B000DF93F82E192FE62E042F81E0860F880F87
:1005C0000E94A50283E00E94A502CF2DD12FEC0E40
:1005D000FD2EF11CCE15DF05B9F007FF13C0FE019B
:1005E00084910E94A502182F80E00E94A502812319
:1005F00021968111EFCFDF91CF911F910F91FF9045
:10060000EF9008958881EDCF81E0F5CFDF92EF92F2
:10061000FF920F931F93CF93DF93D82E8A01EB01A4
:100620007B01E40EF51ECE15DF0559F0D7FE12C092
:10063000FE0184910E94A50221968111F4CF0FEF53
:100640001FEFC801DF91CF911F910F91FF90EF90A5
:10065000DF9008958881EECF2FB7F894877080934C
:10066000E9009091E800892F807295FF04C0909175
:10067000F20080E4891B2FBF0895615030F0209173
:10068000F100FC0120830196F8CF289884E680933E
:100690000E0308958091A00281110DC082E0809325
:1006A0009C0284E080939D0210929F0210929E0211
:1006B00081E08093A0028CE992E008950F931F934C
:1006C000CF93DF931F92CDB7DEB782E0898342E4F8
:1006D00050E063E371E080E80E9406030E944A0351
:1006E000DC0112960D911C910115110589F0D801BC
:1006F000ED91FC910280F381E02DBE016F5F7F4F91
:10070000C801099597FD04C0F80100851185ECCF5B
:1007100089810F90DF91CF911F910F910895CF9311
:10072000DF931F92CDB7DEB76983DC01ED91FC91B9
:100730000280F381E02D41E050E0BE016F5F7F4F0A
:1007400009950F90DF91CF91089583E00E942C03CB
:1007500090E00895CF93DF931F92CDB7DEB7FC01F1
:100760008485958597FD08C02FEF3FEF3587248757
:100770000F90DF91CF910895CE0101960E945D0206
:10078000019719F4898190E0F3CF8FEF9FEFF0CFBD
:100790000F931F93CF93DF931F92CDB7DEB78C01DA
:1007A000FC018485958597FF0BC0CE0101960E94C0
:1007B0005D02019771F4898190E0F8019587848743
:1007C000F801848595850F90DF91CF911F910F914E
:1007D00008958FEF9FEFF1CFFC018485958597FDFC
:1007E0000BC09FB7F89482E08093E9008091F200FB
:1007F0009FBF90E0019608959FB7F89482E08093A0
:10080000E9008091F2009FBF90E0089581508F3001
:1008100008F047C0E82FF0E0E05FFB4F0C94E01FCA
:100820002D0431041F0425042904510451045104EA
:1008300034043A043E044204480451044C048091B8
:1008400080008F77809380000895809180008F7D55
:10085000F9CF80918000877FF5CF84B58F7784BDF5
:10086000089584B58F7DFBCF809190008F77809322
:1008700090000895809190008F7DF9CF8091900035
:10088000877FF5CF8091C0008F778093C000089557
:100890008091C0008F7DF9CF8091C200877F8093C7
:1008A000C2000895CF93DF93282F30E0F901EC5E6A
:1008B000FE4F8491F901EB50FF4FD491F901EA52B8
:1008C000FF4FC491CC23A1F081110E940604EC2FAC
:1008D000F0E0EE0FFF1FE853FF4FA591B491EC91AC
:1008E000ED2381E090E009F480E0DF91CF9108955D
:1008F00080E090E0FACF862F0C9452041F93CF93A0
:10090000DF93282F30E0F901EC5EFE4F8491F9016E
:10091000EB50FF4FD491F901EA52FF4FC491CC2321
:10092000A9F0162F81110E940604EC2FF0E0EE0FC3
:10093000FF1FE654FF4FA591B4918FB7F894EC9147
:10094000111108C0D095DE23DC938FBFDF91CF91CA
:100950001F910895DE2BF8CF862F642F0C947E0410
:10096000CF93DF9390E0FC01EB50FF4F24918A522C
:100970009F4FFC0184918823C9F090E0880F991F54
:10098000FC01E455FF4FA591B491FC01E654FF4FE3
:10099000C591D49161110DC09FB7F8948C912095A9
:1009A00082238C938881282328839FBFDF91CF9156
:1009B0000895623051F49FB7F8943C91822F80954E
:1009C00083238C93E8812E2BEFCF8FB7F894EC9193
:1009D0002E2B2C938FBFEACF862F642F0C94B0045C
:1009E0003FB7F8948091980290919902A0919A0251
:1009F000B0919B0226B5A89B05C02F3F19F0019628
:100A0000A11DB11D3FBFBA2FA92F982F8827BC0168
:100A1000CD01620F711D811D911D42E0660F771F90
:100A2000881F991F4A95D1F708958F929F92AF9290
:100A3000BF92CF92DF92EF92FF924B015C010E9436
:100A4000F0046B017C010E94F0046C197D098E0991
:100A50009F09683E734081059105A8F321E0821A41
:100A60009108A108B10888EEC80E83E0D81EE11CE9
:100A7000F11C81149104A104B10429F7FF90EF90B7
:100A8000DF90CF90BF90AF909F908F9008957F920E
:100A90008F929F92AF92BF92CF92DF92EF92FF928E
:100AA0000F931F93CF93DF93C82E8B017A01809110
:100AB0000F03811110C08FEF9FEFDF91CF911F9136
:100AC0000F91FF90EF90DF90CF90BF90AF909F90ED
:100AD0008F907F9008958091AE0280FF05C0809135
:100AE000E00082608093E000CE2DDF2DD12C8AEFD4
:100AF000B82E8C2D8770982E8C2D8072882E8C2D80
:100B00008074782E9AE3A92E209719F4DD2009F439
:100B100052C08C2D0E942C0381110AC0BA94BB20B4
:100B200051F261E070E080E090E00E941505ECCFAA
:100B30008C171D0611F00CF08C2F9FB7F894909233
:100B4000E9002091E80025FD02C09FBFDDCF282FDE
:100B500030E0C21BD30B882029F08150A0F0109206
:100B6000F100FBCFF801C7FC0AC0815050F0419161
:100B70004093F100FACF44914093F10031968150B7
:100B8000D0F7020F131FDD2021F0A092E800D12C36
:100B9000DCCF8091E80085FD07C0A092E800DD244D
:100BA000D394209791F2F3CF209779F6772069F2CA
:100BB000A092E800CACF5D9884E68093AD02C70199
:100BC0007CCF1F93CF93DF931F92CDB7DEB7809179
:100BD0008A0381112AC011E010937D0310937E03D4
:100BE00083E893E09093800380937F0310928203C5
:100BF000109281038FE791E090937A0380937903B9
:100C0000109285031092840310928703109286033A
:100C1000109388031093890381EC809383030E94CF
:100C20004A030E94BC0110938A0383E0898341E058
:100C300050E0BE016F5F7F4F80917C030E944705AB
:100C400097FD09C080917C0348E050E065E674E0C0
:100C500080640E9447050F90DF91CF911F91089506
:100C6000CF92DF92EF92FF920F931F93E62F0091A6
:100C7000650410916604209167043091680441E096
:100C800050E060E070E06A017B0104C0CC0CDD1C28
:100C9000EE1CFF1C8A95D2F7D701C601EE23A1F006
:100CA000802B912BA22BB32B809365049093660429
:100CB000A0936704B09368041F910F91FF90EF9089
:100CC000DF90CF900C94E10580959095A095B0951C
:100CD00080239123A223B323E7CFCF93DF93EC01AB
:100CE00080910B01882331F083E00E94470518169C
:100CF000190634F081E090E09B838A8380E090E0E5
:100D0000DF91CF9108952FB7F8946091940270917C
:100D1000950280919602909197022FBF0895CF92ED
:100D2000DF92EF92FF920F931F930E948306009130
:100D300018031091190320911A0330911B036B01C2
:100D40007C01C01AD10AE20AF30AA7019601211513
:100D500031054105510521F421E030E040E050E04B
:100D6000E0911603F091170388EE93E0E89FB0013D
:100D7000E99F700DF89F700D1124072E000C880B51
:100D8000990B0E94BE1F30936E0320936D03109247
:100D90001703109216030E94830660931803709342
:100DA000190380931A0390931B031F910F91FF90D7
:100DB000EF90DF90CF9008950F931F93CF93DF9321
:100DC000C82FD62F86E0C89FF0011124E056FC4FB3
:100DD00011A2878D90A181309105F1F058F08230F9
:100DE0009105F1F1039709F440C0DF91CF911F9174
:100DF0000F9108956623C9F361E070E08C2F0E9483
:100E000002020E9483066093F8037093F9038093B3
:100E1000FA039093FB03E9CF0E9483060091F80345
:100E20001091F9032091FA033091FB03AB01BC014F
:100E3000401B510B620B730B80910A0490910B04C1
:100E4000B0E0A0E084179507A607B70748F462E072
:100E500070E08C2FDF91CF911F910F910C940202C3
:100E600063E070E0D111C1CFF4CF70E060E0F1CF6A
:100E700020914902260F3327331F21323105ECF42C
:100E800020916D02FC0190E080E0243069F082E066
:100E90000895A09149022191AC01475D5D4FA40FD7
:100EA000B52FB11D2C930196861798F380914902B6
:100EB000680F6093490280E0089581E008950895E5
:100EC0008FEF9FEF08958FEF9FEF0895809122029B
:100ED00090E09195819591090895CF93DF93CB018F
:100EE000EA01642F0E943807CE01DF91CF91089567
:100EF000CF93DF931F92CDB7DEB7698361E0CE0158
:100F000001960E94380781E090E00F90DF91CF9129
:100F1000089590E080E00895DC01FB0112962C9189
:100F20001297848195812817190641F49181808157
:100F3000813A31F49D7F81E0913009F080E008959D
:100F40008132E1F79B3029F482811F968C9381E0F6
:100F500008959A3099F7828150968C93F8CFDC01EE
:100F6000FB0188E4808389E4818384E482831D9685
:100F70009C911D979F709F5B93831D968D919C9173
:100F800024E0969587952A95E1F78F708F5B84838F
:100F900085E00895EF92FF920F931F93CF93DF9315
:100FA000FB012081213871F52381223259F5DC01C2
:100FB00012964C91248135814217130619F5EC01E4
:100FC0000B851C85F12CE12C0115110589F0F80128
:100FD000448155816281738180E80E9406038F3FBE
:100FE000980749F0E80EF91ED8010D911C91ECCF3D
:100FF00081E08F87C701DF91CF911F910F91FF9003
:10100000EF90089590E080E0F6CFCF93DF93CDB7D7
:10101000DEB769970FB6F894DEBF0FBECDBFFC01F7
:10102000DB018C918F5F8C939E012D5F3F4F8DE094
:10103000D9011D928A95E9F729E0298384E08A8302
:1010400091E09D8383E08E832A8721E22B879C8712
:101050009D879F8722E2288B27E02B8B25E02C8B16
:101060008E8B20E430E0388F2F8B998F82818B8399
:1010700095858685998B8A8B838180688D8B49E1E4
:1010800050E0BE016F5F7F4F80E00E9406036996CB
:101090000FB6F894DEBF0FBECDBFDF91CF9108959C
:1010A000CF93C82F68E08CE193E00E948F036C2FF0
:1010B0008CE193E00E948F03CF910C948702CF9232
:1010C000DF92EF92FF92CF93DF93EC010E948306B1
:1010D0006B017C01E881F981309711F081E009957D
:1010E0008CE193E00E94AA0397FF0DC00E94830643
:1010F0006C197D098E099F0964367105810591057A
:1011000048F38FEF9FEFDF91CF91FF90EF90DF904B
:10111000CF900895CF92DF92EF92FF920F931F939B
:10112000CF93DF938CE193E00E94EC03181619062D
:101130000CF09BC08DE594E00E945F08019791F749
:101140008DE594E00E945F08019709F08EC08DE55F
:1011500094E00E945F088C01C1E097FD2AC08DE5F4
:1011600094E00E945F087C010197809708F061C0BD
:1011700081E2C82E84E0D82E8DE594E00E945F08BD
:10118000F60181936F01C0E097FDC5E0C601815271
:1011900094408E159F055CF0C1110BC08DE594E065
:1011A0000E945F089C0197FF46C0C3E002C0CC23A9
:1011B00019F3D091390464E08CE193E00E948F032D
:1011C0006D2F8CE193E00E948F036C2F2BC08091D8
:1011D000390490913A04C4E0E217130651F78038BD
:1011E00091051CF090E080E001C0019608171907F6
:1011F00019F00F3F110581F4C1E2D4E0CE01815214
:1012000094408E159F0524F489910E942502F6CF03
:1012100010933A040093390463E08CE193E00E9458
:101220008F03602F8CE193E00E948F030E9487025E
:1012300079CFC2E0BECFF801E051FE4FE491C70183
:101240008E27FC01E051FE4FE491A1E2B4E0CD0114
:10125000815294408E159F050CF0B9CF9D91E927DE
:10126000F0E0E051FE4FE491F2CFDF91CF911F917A
:101270000F91FF90EF90DF90CF900895CF92DF9283
:10128000EF92FF92CF93DF931F92CDB7DEB70E940C
:1012900083066B017C01E0915D04F0915E04309760
:1012A00011F080E0099580915C04882379F019821F
:1012B000CE0101960E943F02898190E00F90DF915C
:1012C000CF91FF90EF90DF90CF9008950E948A0811
:1012D0000E9483066C197D098E099F09603971404F
:1012E00081059105C0F280915C048111D4CF8FEF0C
:1012F0009FEFE4CF0F931F93CF93DF9320912102B1
:101300002F5F322F37703093210220FF2BC020E84F
:1013100031FD2064347009F02062205FFC01EC0193
:10132000239600E011E06485662329F070E0C8018F
:101330000E94AA1F6F5F6187322F369F030E30E035
:10134000311D1124311110C01682662311F0615035
:1013500061873196EC17FD0731F7DF91CF911F912F
:101360000F91089520E0D4CF31503683EECF4F92C5
:101370005F927F928F929F92AF92BF92CF92DF92B5
:10138000EF92FF920F931F93CF93DF932C01EB010A
:101390000E94F004F20127853089621B730B6A30CA
:1013A0007105B0F3F8948A819B81181619060CF028
:1013B000CDC1E881F9816BB1862E689480F83BB18C
:1013C0003E7F3BB9DA848F812D2D281B822F2F83FE
:1013D0004F85042E000C550BAA81BB817D85FC84B2
:1013E000EE847F5FF394E3949E819884B984AB8408
:1013F0001181C12C6C2D0C2D2C2D2181112788944D
:101400002111280F08F42FEF8195889470FD120F99
:101410001795889471FD120F1795889472FD120F1D
:101420001795889473FD120F1795889474FD120F09
:101430001795889475FD120F1795889476FD120FF5
:101440001795889477FD120F17958894622F711164
:10145000612F8D0D162F002C8BB800C017FF3BB9E4
:1014600020816627889400C000C0002C3BB9211160
:10147000290F00C0002C8BB800C016FF3BB908F440
:101480002FEF9195889400C000C0002C3BB9F0FC70
:10149000620F00C0002C8BB800C015FF3BB96795E8
:1014A0008894F1FC620F00C000C0002C3BB9679526
:1014B000889400C0002C8BB800C014FF3BB9F2FC2C
:1014C000620F6795889400C000C0002C3BB9F3FC04
:1014D000620F00C0002C8BB800C013FF3BB96795AA
:1014E0008894F4FC620F00C000C0002C3BB96795E3
:1014F000889400C0002C8BB800C012FF3BB9F5FCEB
:10150000620F6795889400C000C0002C3BB9F6FCC0
:10151000620F00C0002C8BB800C011FF3BB967956B
:101520008894F7FC620F00C000C0002C3BB967959F
:10153000889400C0002C8BB800C010FF3BB9122F5C
:10154000F110162F9B0D00C000C0002C3BB900C04D
:1015500000C0002C8BB800C017FF3BB92281662762
:10156000889400C000C0002C3BB92111290D00C097
:10157000002C8BB800C016FF3BB908F42FEFE40F26
:10158000F51F00C000C0002C3BB9E0FC620F00C09A
:10159000002C8BB800C015FF3BB967958894E1FC1F
:1015A000620F00C000C0002C3BB96795889400C052
:1015B000002C8BB800C014FF3BB9E2FC620F6795AA
:1015C000889400C000C0002C3BB9E3FC620F00C04F
:1015D000002C8BB800C013FF3BB967958894E4FCDE
:1015E000620F00C000C0002C3BB96795889400C012
:1015F000002C8BB800C012FF3BB9E5FC620F679569
:10160000889400C000C0002C3BB9E6FC620F00C00B
:10161000002C8BB800C011FF3BB967958894E7FC9C
:10162000620F00C000C0002C3BB96795889400C0D1
:10163000002C8BB800C010FF3BB9122FE110162F01
:10164000919400C000C0002C3BB99A0C00C000C0AF
:101650008BB800C017FF3BB921816627889400C072
:1016600000C0002C3BB92111280F00C0002C8BB802
:1016700000C016FF3BB908F42FEF8195889400C095
:1016800000C0002C3BB970FD620F00C0002C8BB86D
:1016900000C015FF3BB96795889471FD620F00C0CB
:1016A00000C0002C3BB96795889400C0002C8BB813
:1016B00000C014FF3BB972FD620F6795889400C0AB
:1016C00000C0002C3BB973FD620F00C0002C8BB82A
:1016D00000C013FF3BB96795889474FD620F00C08A
:1016E00000C0002C3BB96795889400C0002C8BB8D3
:1016F00000C012FF3BB975FD620F6795889400C06A
:1017000000C0002C3BB976FD620F00C0002C8BB8E6
:1017100000C011FF3BB96795889477FD620F00C048
:1017200000C0002C3BB96795889400C0002C8BB892
:1017300000C010FF3BB9122F7111162F8D0D00C084
:1017400000C0002C3BB9119709F086CE4A815B811D
:1017500020EE31E0DA010E94E61FDC01CB01F4E06B
:10176000B695A79597958795FA95D1F730E020E043
:10177000B901EAE94E9F040E611D5E9F600D711D67
:101780001124650F711D860F971FA11DB11D893E84
:1017900043E09407A105B10508F434C0885E934086
:1017A000A109B10942E0B695A795979587954A9505
:1017B000D1F747E0849F080E211D949F200D311D15
:1017C0001124290F311D6091200270E0860F971FB0
:1017D000820F931F4091940250919502609196025E
:1017E00070919702292F3327420F531F611D711DDE
:1017F00040939402509395026093960270939702DF
:101800008093200278940E94F004F201708B678725
:10181000DF91CF911F910F91FF90EF90DF90CF90CC
:10182000BF90AF909F908F907F905F904F90089562
:10183000509A08956F927F928F92CF92DF92EF929B
:10184000FF920F931F93CF93DF93CDB7DEB76297CD
:101850000FB6F894DEBF0FBECDBF6C017A01380120
:10186000822EDC011C962C91CA0157FF04C08827E8
:101870009927841B950B7A8369839C838B839E8332
:101880008D836D867E868F86213049F5CE01019647
:101890000E947A0983E0888B1A8A198AF7FE02C0AF
:1018A0008DEF888BD601ED91FC910484F585E02DB8
:1018B000BE016F5F7F4FC601099562960FB6F8941F
:1018C000DEBF0FBECDBFDF91CF911F910F91FF9073
:1018D000EF90DF90CF908F907F906F9008951C864F
:1018E0001B861A86198618861F82D4CFEF92FF9224
:1018F0000F931F93CF93DF93CDB7DEB762970FB6E9
:10190000F894DEBF0FBECDBF7C01DC011C968C912C
:101910007A8369835C834B835E834D830D871E8747
:101920002F878130F9F4CE0101960E947A09188A36
:101930001A8A198AD701ED91FC910484F585E02D6E
:10194000BE016F5F7F4FC701099562960FB6F8948D
:10195000DEBF0FBECDBFDF91CF911F910F91FF90E2
:10196000EF9008951C861B861A86198618861F829A
:10197000DECF0F931F930E94830600910F041091F6
:1019800010042091110430911204601B710B820B22
:10199000930B0091130410911404209115043091BD
:1019A0001604061717072807390750F40E94830604
:1019B00060930F04709310048093110490931204A9
:1019C0001F910F91089580E00E9450080C948702A7
:1019D00090E080E008954F925F926F927F928F9295
:1019E0009F92AF92BF92CF92DF92EF92FF920F93AE
:1019F0001F93CF93DF9300D01F92CDB7DEB76A015C
:101A000019821A821B828823C9F18B01E1E0F0E080
:101A1000482E512C712C612CD8012D918D0122233F
:101A200049F17F01B1E0EB1AF108D601AE0DBF1DFF
:101A30008C908820F9F030E050E040E02F5F3F4F7D
:101A40004F4F5F4FC301B2010E949A1F9B01AC012F
:101A5000912CB12CA12CC501B4016F5F7F4F8F4F2A
:101A60009F4F0E949A1FA1E0B0E0AC0FBD1FAE0DCA
:101A7000BF1D8C933196E430F10571F669817A814E
:101A80008B810F900F900F90DF91CF911F910F914D
:101A9000FF90EF90DF90CF90BF90AF909F908F908E
:101AA0007F906F905F904F900895CF92DF92EF926A
:101AB000FF920F931F93CF93DF93F0906C0380916D
:101AC0006F0390917003A0917103B0917203892B01
:101AD0008A2B8B2BD9F00E94F004009112031091F5
:101AE00013032091140330911503601B710B820BBB
:101AF000930B00916F03109170032091710330914B
:101B000072036017710782079307C8F20E94F004FE
:101B1000609312037093130380931403909315033F
:101B2000E0917703F0917803309759F04091730377
:101B30005091740360917503709176038F2D099510
:101B4000F82EC0911003D0911103209721F1EC845D
:101B500080916D0390916E038436910508F41C8684
:101B6000E881F981C280D380AE01475F5F4FBE013B
:101B70006A5F7F4F8F2D0E94EB0C8B01282F4D85C4
:101B80005E856A817B81CE01F6010995EC860C8029
:101B9000DD81C02DDACF80911603909117039C014F
:101BA0002F5F3F4F3093170320931603499754F04C
:101BB000DF91CF911F910F91FF90EF90DF90CF9029
:101BC0000C948F06DF91CF911F910F91FF90EF90B2
:101BD000DF90CF9008950C94550DAF92BF92CF92A5
:101BE000DF92EF92FF920F931F93CF93DF936C01DD
:101BF000F62E80916F0390917003A0917103B091C4
:101C00007203892B8A2B8B2BD9F00E94F004009150
:101C10001203109113032091140330911503601BDC
:101C2000710B820B930B00916F0310917003209145
:101C30007103309172036017710782079307C8F22E
:101C40000E94F004609312037093130380931403B3
:101C500090931503E0917703F0917803309759F052
:101C600040917303509174036091750370917603F2
:101C70008F2D0995F82EC0911003D0911103209754
:101C800019F1EC8480916D0390916E038436910577
:101C900008F41C86E881F981A080B180AE01475F1D
:101CA0005F4FBE016A5F7F4F8F2D0E94EB0C4D8509
:101CB0005E858B01282FB601CE01F5010995EC86D2
:101CC0000C80DD81C02DDBCF80911603909117032E
:101CD0009C012F5F3F4F30931703209316034997C2
:101CE00064F0DF91CF911F910F91FF90EF90DF9003
:101CF000CF90BF90AF900C948F06DF91CF911F9142
:101D00000F91FF90EF90DF90CF90BF90AF9008952C
:101D1000FC018585968508950F931F93CF93DF93DC
:101D200000D01F92CDB7DEB7AB0119821A821B8299
:101D3000DC01ED91FC910190F081E02D00E010E0DC
:101D400020E0BE016F5F7F4F09950F900F900F90BD
:101D5000DF91CF911F910F9108950F931F93CF9310
:101D6000DF93EC01FC0101900020E9F731978F012E
:101D7000081B190B66E08CE193E00E948F03602F33
:101D80008CE193E00E948F03FE0101900020E9F7AF
:101D90003197AF014C1B5D0BBE018CE193E00E94BB
:101DA0006D0660E28CE193E00E948F03DF91CF919A
:101DB0001F910F910C9487020E94E321FC01248162
:101DC0003581FB014481558124173507E1F4FC017D
:101DD00080819181FB01608171810097D1F0611553
:101DE0007105A1F4232BC1F0FC01808190E008C0B3
:101DF000232B91F0FB01808190E0919581959109D1
:101E000021E0892B09F020E0822F08950E94F12122
:101E1000F7CF6115710561F721E0F6CF0F931F939E
:101E2000CF93DF93EC0188819981009759F02A8143
:101E30003B812617370730F081E0DF91CF911F916A
:101E40000F9108958B016F5F7F4F0E9426210097AD
:101E500059F0998388831B830A832C813D81232B2E
:101E600059F7FC011082E8CF80E0E7CFEF92FF92B4
:101E70000F931F93CF93DF936115710541F480E0B9
:101E8000DF91CF911F910F91FF90EF900895411531
:101E90005105B1F07B01EC010C811D81040F151F70
:101EA000B8010E940E0F882351F3288139818C815B
:101EB0009D81B701820F931F0E94FA211D830C831D
:101EC00081E0DECFCF93DF93EC0188819981009789
:101ED00011F00E949D20198218821D821C821B8293
:101EE0001A82DF91CF910895EF92FF920F931F9383
:101EF000CF93DF938C017B01EB0109900020E9F780
:101F00002197C61BD70BBE010E940E0F811109C07D
:101F1000C801DF91CF911F910F91FF90EF900C942A
:101F2000620FF801D583C483B70180819181DF916D
:101F3000CF911F910F91FF90EF900C94FA210F9386
:101F40001F93CF93DF938C01EC0109900020E9F7F8
:101F50002197C81BD90BBE018FE594E00E940E0F9C
:101F6000811108C08FE594E0DF91CF911F910F910F
:101F70000C94620FD0936404C0936304B801809101
:101F80005F0490916004DF91CF911F910F910C94A9
:101F9000FA21FC0180819181009711F00C949D2021
:101FA0000895EF92FF920F931F93CF93DF93EC016D
:101FB0008B01198218821B821A821D821C82CB011E
:101FC0000E94401F7C01BC01CE010E940E0F8111B6
:101FD00009C0CE01DF91CF911F910F91FF90EF903B
:101FE0000C94620FFD82EC82B80188819981DF91A7
:101FF000CF911F910F91FF90EF900C94391F1F9379
:10200000CF93DF9385ED8093BC0080912502909162
:102010002602A0912702B09128020796A11DB11DAA
:1020200023E0B695A795979587952A95D1F72091A6
:10203000BC0024FD03C010926D0252C040912502E5
:10204000509126026091270270912802452B462B61
:10205000472B69F30097A105B10541F02AE22A95C3
:10206000F1F700C00197A109B109E1CF80912402E5
:10207000C1E0C0932302882399F1D091B800109158
:10208000BA008091BC008A7B8093BC0060E082E053
:102090000E947E0460E083E00E947E0410926D0244
:1020A000C0936F0210926E0261E082E00E947E0493
:1020B00061E083E00E947E048091B9008E7F80936E
:1020C000B9008091B9008D7F8093B90088E4809336
:1020D000B80085E48093BC001093BA00D093B80098
:1020E000DF91CF911F9108951F920F920FB60F921B
:1020F00011242F933F934F935F936F937F938F930D
:102100009F93AF93BF93CF93EF93FF93C091E10061
:102110008091E100837F8093E100C3FF0FC01092A4
:10212000E90081E08093EB001092EC0082E3809361
:10213000ED0010920F0388E08093F000C2FF1AC0F8
:102140000E9487028091AD02882341F08091AD0208
:1021500081508093AD02811101C05D9A80910E0380
:10216000882341F080910E03815080930E038111EA
:1021700001C0289AC4FF23C08091E2008E7E816056
:102180008093E2008091E1008F7E8093E100809156
:10219000AE028E7E80618093AE02FF91EF91CF916F
:1021A000BF91AF919F918F917F916F915F914F916F
:1021B0003F912F910F900FBE0F901F901895C0FF69
:1021C000ECCF8091E2008E7E80618093E20080916E
:1021D000E1008E7E8093E1008091AE028E7E816070
:1021E000DACF1F920F920FB60F921124CF92DF9287
:1021F000EF92FF920F931F932F933F934F935F9311
:102200006F937F938F939F93AF93BF93EF93FF93BE
:10221000CF93DF93CDB7DEB76C97DEBFCDBF109203
:10222000E9008091E80083FF25C068E0CE01459673
:102230000E943D0382EF8093E8008D8987FF39C0BB
:102240009091E80090FFFCCF982F907609F034C170
:102250009E894F89588D2F89F88C911131C0803813
:1022600061F58091AF028093F1001092F1008EEF42
:102270008093E8006C960FB6F894DEBF0FBECDBF1A
:10228000DF91CF91FF91EF91BF91AF919F918F918E
:102290007F916F915F914F913F912F911F910F917E
:1022A000FF90EF90DF90CF900F900FBE0F901F9098
:1022B00018959EEF9093E800C7CF1092F100D5CF0C
:1022C000913059F48111D3CF4130510581F680917D
:1022D000AF028D7F8093AF02CACF933049F4811152
:1022E000C6CF4130510519F68091AF028260F2CF1E
:1022F000953041F48091E80080FFFCCF2068209366
:10230000E300B5CF963009F0A9C00B8D1C8D22E0FB
:102310001092E9001092AB021092AA02F2122EC0A3
:102320001092A9021092A8020E945E031F8299E0F7
:102330009983FA8291E09E8390EA98879AEF998731
:102340002091AA023091AB02275F3F4F3C832B8341
:102350008D831092E9001092AB021092AA021093A2
:10236000A9020093A80249E050E0BE016F5F7F4FD1
:1023700080E00E9406030E945E0379CF1093A902B9
:102380000093A8020E944A03DC0112960D911C9151
:102390000115110509F451C1D801ED91FC9104809A
:1023A000F581E02DBE016B5E7F4FC8010995009756
:1023B00009F03EC1F80100851185EACFF3E0FF1274
:1023C0000EC08F89882309F440C0823061F440E850
:1023D00060E187E991E00E94D302811148CF81E258
:1023E0008093EB0047CF813029F440E86BE08BE825
:1023F00091E0F1CF833099F70E944A03DC011296F5
:10240000ED90FC908E010F5F1F4F6801E114F10405
:1024100079F0D701ED91FC910680F781E02DB801AC
:10242000C7010995080F111DF701E084F184EECF73
:10243000D8011C92F60101900020E9F73197BF0105
:102440006C197D0940E0C601C6CF65E771E0FB016C
:10245000449150E080E80E94060309CF973009F4C8
:10246000BECF983021F481E08093F10000CF993005
:1024700009F0FDCE837009F0B2CFE9E1F1E081E02F
:1024800031E096E32191222371F08093E9003093AB
:10249000EB00DF0111972C912093EC009093ED005D
:1024A0008F5F873079F78EE78093EA001092EA0019
:1024B0008F8980930F03DBCE8B8D9C8D1092E9006A
:1024C0001092AB021092AA029093A9028093A802E4
:1024D000898D811192C08E899D89913A49F481320A
:1024E00009F07DCF47E050E064E071E080E0B3CFD9
:1024F000913209F074CF833269F48F89988DB0E0FE
:10250000A0E08093000190930101A0930201B09399
:102510000301ADCE803269F48091E80082FFFCCFE8
:1025200067E084E091E00E943D038BEF8093E80038
:102530009ECE823209F09BCE8F8980930B01EEEF05
:10254000FFE7859194918B3F9C4D51F1E0E0F8E0DD
:102550008091040190910501A0910601B0910701BD
:10256000803B9440A105B105F1F480910B0180FD01
:102570001AC0EE3F8AE0F80789F587E797E791836D
:102580008083809160008093AC0288E19BE00FB66D
:10259000F894A895809360000FBE9093600067CE7A
:1025A000EEEFFAE0D5CF808191818737974709F028
:1025B0005ECEA895809160008861809360008091D4
:1025C000AC0280936000EE3F2AE0F20789F0809130
:1025D000FE0A9091FF0A9183808349CE8081918188
:1025E0008737980751F29093FF0A8093FE0AC5CF70
:1025F0001092FF0A1092FE0A3ACE0E944A03DC01B2
:1026000012960D911C910115110509F4E8CED8011F
:10261000ED91FC910190F081E02DBE016B5E7F4F4A
:10262000C8010995811123CEF80100851185EBCFF2
:10263000181619060CF41BCED2CEF1E0FF12BECE56
:1026400069E771E004CF1F920F920FB60F92112429
:102650002F933F938F939F93AF93BF938091940257
:1026600090919502A0919602B091970230919302B9
:1026700023E0230F2D3758F50196A11DB11D20939E
:1026800093028093940290939502A0939602B09344
:1026900097028091980290919902A0919A02B0912C
:1026A0009B020196A11DB11D8093980290939902FF
:1026B000A0939A02B0939B02BF91AF919F918F918B
:1026C0003F912F910F900FBE0F901F90189526E805
:1026D000230F0296A11DB11DD2CF1F920F920FB6EC
:1026E0000F9211242F933F934F935F936F937F9398
:1026F0008F939F93AF93BF93EF93FF938091B90014
:10270000887F803609F44AC0F0F5883209F4A5C004
:1027100018F5803109F499C0B8F4882309F4F5C09C
:10272000883009F492C0FF91EF91BF91AF919F91D2
:102730008F917F916F915F914F913F912F910F906A
:102740000FBE0F901F901895883109F486C0803213
:1027500051F780936C0214C0803409F49BC040F49C
:102760008033B9F38833F9F680936C0285ECAEC000
:10277000803509F483C0883509F494C0883499F60B
:102780000E94FF0FD0CF883909F48AC038F5883706
:1027900029F050F4883611F0803729F683E08093D1
:1027A0006D0210926B0255C0883809F479C08039E7
:1027B00019F0803809F0B7CF80916B02803208F0B1
:1027C0006FC0E0916B0281E08E0F80936B0280916D
:1027D000BB00F0E0E55BFD4F80833BC0803B39F000
:1027E000D0F4803A09F477C0883A09F09CCF84E0AD
:1027F00080936D0210924A0210924902F0E0E0E0EC
:1028000009958091490281110FC081E080934902AE
:102810001092290209C0803C09F4A8CF883C09F431
:10282000A5CF883B09F07FCFE0914A0281E08E0F6F
:1028300080934A02F0E0E75DFD4F80818093BB000A
:1028400090914A028091490229C08091920280931E
:10285000BB0085EC8093BC0066CF90919102809183
:102860009002981758F5E091910281E08E0F8093C5
:102870009102F0E0E059FD4F8081E9CFE0919102B3
:1028800081E08E0F809391028091BB00F0E0E059CF
:10289000FD4F808390919102809190029817C8F229
:1028A00085E8D8CFE091910281E08E0F809391026C
:1028B0008091BB00F0E0E059FD4F808380916F0272
:1028C00081115ECF81E080936E0284EA8093BC0028
:1028D00010926D0228CF85EC8093BC0010926D029F
:1028E00080916B02803230F4E0916B02F0E0E55BA6
:1028F000FD4F108260916B0270E08BE492E0F0E09B
:10290000E0E0099510926B020ECF10926C0238CF66
:102910001F920F920FB60F9211242F933F938F9314
:102920009F9381E080930C0380911E0290911F027F
:10293000019690931F0280931E0280911E02909137
:102940001F020A971CF180911C0290911D020196B2
:1029500090931D0280931C0210921F0210921E027F
:1029600080911A0290911B02019690931B02809312
:102970001A0280911A0290911B02CD9724F01092B6
:102980001B0210921A0281E080930A0380911C02BC
:1029900090911D020597ACF110921D0210921C023D
:1029A00081E0809309032091D6023091D7022F5FF6
:1029B0003F4F3093D7022093D6022091D602309118
:1029C000D7022B303105BCF01092D7021092D602FC
:1029D0002091D4023091D5022230310561F4109259
:1029E000D5021092D40290910B03992399F0109282
:1029F0000B0380930D038091D802882371F010920D
:102A0000D8029F918F913F912F910F900FBE0F9001
:102A10001F90189580930B03EECF81E08093D8022E
:102A2000F0CF0F931F93CF93DF938C01EC010990AC
:102A30000020E9F72197C81BD90B66E08CE193E0F1
:102A40000E948F036C2F6F5F8CE193E00E948F03D5
:102A5000F80101900020E9F73197AF01401B510BBD
:102A6000B8018CE193E00E946D066AE08CE193E08E
:102A70000E948F0360E28CE193E00E948F03DF915C
:102A8000CF911F910F910C948702CF9310921F0347
:102A900010921E0388EE93E0A0E0B0E08093200344
:102AA00090932103A0932203B093230383E691E044
:102AB00090931D0380931C038FEF9FEF9093290346
:102AC0008093280380936C0310926E0310926D0321
:102AD00010927803109277038FEF9FEFDC018093C1
:102AE000730390937403A0937503B093760380915E
:102AF0009803811113C0109293031092920380EFF8
:102B000092E0909395038093940380E390E09093F8
:102B100097038093960381E08093980380918A03C2
:102B200081112AC0C1E0C0937D03C0937E0383E876
:102B300093E09093800380937F031092820310921E
:102B400081038FE791E090937A0380937903109249
:102B50008503109284031092870310928603C0931A
:102B60008803C093890381EC809383030E944A0306
:102B70000E94BC01C0938A03E0918403F091850315
:102B8000309709F0B4C082E993E090938503809375
:102B9000840380918603909187032091960330915E
:102BA0009703820F931F909387038093860310925D
:102BB00065041092660410926704109268041092E3
:102BC000690410926A0410926B0410926C041092C3
:102BD000600410925F0410926204109261041092DB
:102BE0006404109263046EEB71E08FE594E00E9440
:102BF000740F8FEF90E090933A0480933904109211
:102C00005B0410925C0410925E0410925D048BE8E9
:102C100091E0909318048093170410921D04109271
:102C20001E0410921F041092200410920F041092A0
:102C3000100410921104109212048AE090E0A0E0B7
:102C4000B0E08093130490931404A0931504B09300
:102C500016041092A2031092A6031092A5031092DC
:102C6000A70385E791E09093A1038093A003ECEB89
:102C7000F3E088EF93E01082148213821582369677
:102C80008E179F07C1F783E291E09093030480932E
:102C900002048FE191E0909305048093040484E0A2
:102CA000809306048093070487E291E090930104E7
:102CB000809300048AE090E09093090480930804D4
:102CC00084EF91E090930B0480930A0410920E0419
:102CD00010920D041092FC031092FD031092FE035B
:102CE0001092FF0310920C04CF910895FC01808193
:102CF00091810097D9F782E993E09183808349CF4E
:102D0000CF93DF93CDB7DEB768970FB6F894DEBFE9
:102D10000FBECDBF789484B5826084BD84B58160D8
:102D200084BD85B5826085BD85B5816085BD809196
:102D30006E00816080936E0010928100809181000E
:102D40008260809381008091810081608093810006
:102D500080918000816080938000809191008260EA
:102D60008093910080919100816080939100809187
:102D700090008160809390008091C1008460809376
:102D8000C1008091C10082608093C1008091C10028
:102D900081608093C1008091C30081608093C300F3
:102DA0008091C00082608093C0008091C2008160E9
:102DB0008093C20080917A00846080937A00809131
:102DC0007A00826080937A0080917A00816080939B
:102DD0007A0080917A00806880937A0010920F03C5
:102DE0001092AF021092AE028091D7008160809362
:102DF000D70080EA8093D80089B5806189BD89B504
:102E0000826089BD09B400FEFDCF61E070E080E022
:102E100090E00E9415058091D8008F7C806180939E
:102E2000D8008091E000807F8093E0008091E100F5
:102E30008E7E8093E1008DE08093E200559A209A87
:102E4000F8941092800010928100109285001092E8
:102E5000840020E137E2309389002093880080933A
:102E6000810082E080936F0078942CE930E0309309
:102E700089002093880080936F002098289A2798D3
:102E80002F9A5198599A55985D9A56985E9A60E093
:102E900082E10E94B0048EEB91E00E949F0F8FEFC1
:102EA0009FEF90932903809328038FE090E0909305
:102EB0001A048093190481E090E090931C0480939D
:102EC0001B048091C302811145C01092B50210927B
:102ED000B4028FEF8093B8028093B9028093BA0254
:102EE0008093BB028093BC028093BD0281E08093FB
:102EF000BE021092C0021092BF021092B70210924E
:102F0000B6028091100390911103892B31F482EB6A
:102F100092E09093110380931003E091B002F0913E
:102F2000B102309721F082EB92E09583848382EBAB
:102F300092E09093B1028093B0021092C20210927C
:102F4000C10281E591E09093B3028093B20281E0E7
:102F50008093C302509A8CED92E09093B5028093D7
:102F6000B4028FE090E09093C0028093BF02809102
:102F70006F0390917003A0917103B0917203843C30
:102F800029E09207A105B10520F484EC99E0A0E0C6
:102F9000B0E080936F0390937003A0937103B0939C
:102FA000720389E093E0ECEDF2E02FEF20831182D1
:102FB000128233968E179F07C9F70E94550D89EB31
:102FC0009CE090935E0480935D04412C512C32016F
:102FD00043940FEF1FEF80910D038823D9F11092D6
:102FE0000D031D861E86FF24FA94FF8660916C03F4
:102FF000CE010D960E94ED0D64EF71E080E090E04F
:103000000E941505188A80E8898B1A8A60916C03E2
:10301000CE0140960E94ED0D64EF71E080E090E0FB
:103020000E941505FB8AFC8AFD8A60916C03CE0123
:1030300043960E94ED0D64EF71E080E090E00E9405
:1030400015051E8A1F8A188E60916C03CE01469664
:103050000E94ED0D80910C03882309F4F0C11092B9
:103060000C0383B18E679091CE02891397C0909123
:10307000CD029F5F9093CD02F090CC028F15F9F0B6
:103080009530E9F41092CD028093CC028095F8221D
:10309000F092CB02FF2009F477C0F7FE07C081E071
:1030A0008093CF0261E081E10E943006F0FE07C00C
:1030B00081E08093CF0261E082E10E94300689B115
:1030C0008D699091D30289137DC09091D2029F5F48
:1030D0009093D202F090D1028F1549F1953039F5D5
:1030E0001092D2028093D1028095F822F092D00201
:1030F000FF2009F458C0F5FE07C081E08093CF029D
:1031000061E084E10E943006F1FE07C081E0809317
:10311000CF0261E085E10E943006F6FE08C0809192
:10312000CF02811104C061E083E10E9430060E9459
:103130008306C090FC03D090FD03E090FE03F09066
:10314000FF03AB01BC014C195D096E097F09809139
:10315000080490910904B0E0A0E084179507A60741
:10316000B70708F042C1F12C80910604F81678F5F3
:10317000E0910204F0910304EF0DF11D62E0808103
:103180000E94B004F394F0CF1092CF0260E081E18E
:103190000E9430061092CF0260E08ECF1092CD02D6
:1031A0008093CE028CCF60E083E10E9430061092C3
:1031B000CF0260E084E10E9430061092CF0260E00E
:1031C00085E1B3CF1092D2028093D302B0CF312CDD
:1031D00080910704381608F064C0E32CF12CE091CC
:1031E0000404F0910504EE0DFF1D61E080810E9452
:1031F000B004E0910404F0910504EE0DFF1D60E0C1
:1032000080810E947E04D301C201032C04C0880F78
:10321000991FAA1FBB1F0A94D2F74C015C01A0940E
:10322000B094212C80910604281620F5C22CD12CB4
:10323000E0910204F0910304EC0DFD1D80810E94D9
:103240005204F6013496892B61F4EE0FFF1FE0560D
:10325000FC4F8081918188299929918380832394CF
:10326000E1CFEE0FFF1FE056FC4F808191818A2154
:103270009B21F3CFE0910404F0910504EE0DFF1DB6
:1032800061E080810E947E04809104049091050495
:10329000E80EF91E60E0F70180810E94B0043394CB
:1032A00097CFF0EAEF2EF3E0FF2E8CED93E067016D
:1032B000F601278D30A1232B31F4148E2FEF3FEF31
:1032C000368F258F11A236E0C30ED11C8C159D05BB
:1032D00079F7B12C80910604B81608F053C0A12CE0
:1032E0008B2C912C880C991CC40188559C4F4C0147
:1032F00020910704A21608F043C0F4016081718197
:103300000A2C02C0769567950A94E2F7B29E900166
:1033100011242A0D311DE0EAF3E080E0458D568D41
:103320002417350709F49FC58F5F36968A30B1F7A9
:1033300060FF24C0E0EAF3E090E080E0448D4111BA
:1033400018C0E0910004F0910104E20FF31F4081E6
:1033500056E0589FF001599FF00D1124E056FC4FA4
:10336000448F368F258F10A2178E61E00E94DC06F5
:1033700005C0019636968A30910501F7A394B8CF1F
:10338000B394A8CFE0EAF3E0B12C81A18111B82E6B
:103390003696CE16DF06C9F70E9483066093FC03BB
:1033A0007093FD038093FE039093FF03BB20E9F02D
:1033B00070E0872E74E0972EF70181A1882379F0C1
:1033C000878D90A18130910509F4B8C008F45EC1E1
:1033D0008230910509F4F6C0039709F408C136E07C
:1033E000E30EF11C8E149F0439F780910B038823A0
:1033F00031F1ECEDF2E030E020E04FEFC90103974E
:10340000099708F448C14083418312828091D80211
:10341000882309F450C14093E2024093E3024093B1
:10342000E4024093000340930103409302032F5FA3
:103430003F4F33962F30310509F70E94550D80918B
:103440000A03882309F447C010920A03E8EAF1E06E
:10345000E49190917B008E2F880F880F80729F7D62
:10346000892B80937B00E770E064E0937C0080917F
:103470007A00806480937A0080917A0086FDFCCF88
:1034800080917800909179009093DB028093DA022A
:103490008091DA029091DB02885A8093D902809160
:1034A000DA029091DB0297FF04C01092DB021092C7
:1034B000DA02F090D902F09269040E94E105F092DC
:1034C0006B040E94E105F0926A040E94E105F0920B
:1034D0006C040E94E1058091090381111092090397
:1034E00080910B03811159C1E0915D04F0915E045C
:1034F000309709F0099580915C04811102C00E9407
:103500008A0880915C04882309F447C10E943E091F
:10351000039709F042C10E9483060E943E0981334D
:1035200009F0D6C00E943E096AE070E080E090E0B9
:103530000E9415058AE60E945008FDC18FE891E0BF
:103540000E949F0F1092D7021092D602F701348C7E
:1035500061E3C62ED12CA32C032C000CBB08CA148B
:10356000DB0429F461E08FEC8C0D0E943006FFEF44
:10357000CF1ADF0A2AE3C216D10489F731E461E0E9
:10358000331609F45CC052E461E0351609F45FC0FB
:1035900083E461E0381609F460C094E461E0391610
:1035A00009F461C0E5E461E03E1609F462C0F6E4A6
:1035B00061E03F1609F463C027E461E032120FCFE7
:1035C00080E13EC089E991E00E949F0FF701848D60
:1035D000863451F48091D4029091D5020196909353
:1035E000D5028093D402FBCE8734A1F3F8CE10929B
:1035F000D5021092D4021092D7021092D60280EA1D
:1036000091E00E949F0FF701348C51E3C52ED12C1D
:10361000A32C032C000CBB08AC14BD0429F460E0FF
:103620008FEC8A0D0E943006FFEFCF1ADF0A2AE3E3
:10363000C216D10489F731E4331205C060E08AE094
:103640000E943006CCCE52E4351203C060E08BE01D
:10365000F7CF83E4381203C060E08CE0F1CF94E44C
:10366000391203C060E08DE0EBCFE5E43E1203C009
:1036700060E08EE0E5CFF6E43F1203C060E08FE04B
:10368000DFCF27E43212ABCE60E09ACF8BEA91E035
:103690000E949F0FA4CE8091DA029091DB026AE033
:1036A00070E00E94AA1F261737071CF4408311827E
:1036B000ACCE1082FCCF1092E2021092E302109284
:1036C000E402109200031092010310920203AFCEA5
:1036D000883309F013C10E943E097C0168EC70E058
:1036E00080E090E00E94150551E0E516F104C9F470
:1036F000109329030093280326E0E216F104E9F46D
:103700001093290300932803EBE0EE16F104E9F48B
:10371000109329030093280380E1E816F104C9F10E
:103720001CC082E0E816F10419F393E0E916F104F5
:10373000C9F4109329030093280337E0E316F1043A
:10374000D1F41093290300932803FCE0EF16F10451
:10375000D9F4109329030093280391E1E916F104A9
:10376000C1F01BC0E4E0EE16F10409F0A1C0109313
:1037700029030093280358E0E516F10409F0B0C0CE
:1037800010932903009328032DE0E216F10409F0B9
:10379000AFC0109329030093280380E00E945204D5
:1037A0007C0190930F0180930E0180910C01909108
:1037B0000D018130910509F005C3E114F104A1F474
:1037C00081E00E945204019709F00AC361E087E199
:1037D0000E94300662E370E080E090E00E941505F0
:1037E00060E087E10E943006F0920D01E0920C014A
:1037F00083E10E9452047C01909313018093120193
:1038000080911001909111018130910509F0F5C26C
:10381000E114F104A1F484E10E945204019709F03B
:10382000FAC261E08BE10E94300662E370E080E062
:1038300090E00E94150560E08BE10E943006F09256
:103840001101E092100187E10E9452047C019093E3
:103850001701809316018091140190911501813018
:10386000910509F0E5C2E114F104A1F485E10E949B
:103870005204019709F0EAC261E089E10E94300632
:1038800062E370E080E090E00E94150560E089E16D
:103890000E943006F0921501E09214010E94830606
:1038A00080E090E0892B09F496CB0E94000093CB36
:1038B000F5E0EF16F10409F01FCF109329030093F0
:1038C00028039AE0E916F10409F01ECF10932903AA
:1038D000009328035FE0E516F10409F45ACF1CCFEA
:1038E00089E0E816F10469F710932903009328038F
:1038F0003EE0E316F10409F44CCFECCF8A3419F41E
:103900000E94E30C4ACF823319F40E94E30C45CFA6
:10391000823419F40E94E30C40CF813411F483E027
:103920000ACE8E3459F482EB91E00E94AD0E8DEBFD
:1039300091E00E94AD0E0E9487022FCF893419F4C6
:103940008FEB91E0F2CF8033E9F46AE070E080E041
:1039500090E00E9415058BEB91E00E94AD0E84EE85
:1039600091E00E94AD0E86EE91E00E94AD0E88EED1
:1039700091E00E94AD0E8AEE91E00E94AD0E8CEEB9
:1039800091E0D3CF833309F408CF863509F405CF0E
:10399000833509F402CF843311F48FE0CCCD863324
:1039A00009F0B3C00E943E09181619060CF09EC01B
:1039B0008130910581F5D12CED2CF12C80911904E9
:1039C00090911A04E816F9066CF70E943E09B82E89
:1039D0000E943E09C82E0E943E0920911B0430918E
:1039E0001C042130310589F42091190421502D192E
:1039F00030E0F901EE0FFF1FE20FF31FE452FD4F1D
:103A0000B082C1828283D394D7CFF701EE0FFF1F1C
:103A1000EE0DFF1DF3CF82309105A1F50E943E0906
:103A20007C010E943E09BE2CE80EF91ECB2CD12C45
:103A3000CE14DF040CF0B6CF0E943E09982E0E94EF
:103A40003E09A82E0E943E0920911B0430911C04BF
:103A50002130310589F42091190421502B1930E0CF
:103A6000F901EE0FFF1FE20FF31FE452FD4F9082AA
:103A7000A1828283B394DACFF601EE0FFF1FEC0D23
:103A8000FD1DF3CF039709F08DCF0E943E097C0105
:103A90000E943E096C010E943E09B82E0E943E0918
:103AA000A82E0E943E099E2D40911B0450911C049B
:103AB000A0911904A150EC0CFD1C692F70E06E154B
:103AC0007F050CF06FCF4130510519F46A2F691B47
:103AD00070E09B01220F331F260F371FF901E452BC
:103AE000FD4FB082A18282839F5FE7CF809119044E
:103AF00090911A041816190614F40E94550D0E948C
:103B0000550D85E10E94500848CE8235D1F38D34A1
:103B100009F443CE873419F40E943E093ECE95EB5A
:103B2000980F923008F439CE803509F061C01886BC
:103B30001F821A8619861C861B866EEB71E0CE01E9
:103B400007960E94740F0E943E0997FD0FC08A30AD
:103B5000910561F089831A8241E050E0BE016F5FF8
:103B60007F4FCE0107960E94360FEDCF1A82198241
:103B70001C821B821E821D826EEE71E0CE010196B8
:103B80000E94740F4B855C856F817885CE0101960C
:103B90000E94360F811104C0CE0101960E94620F6F
:103BA00067E08CE193E00E948F036D816F5F8CE191
:103BB00093E00E948F034D815E8169817A818CE15F
:103BC00093E00E946D066AE08CE193E00E948F030F
:103BD00060E28CE193E00E948F030E948702CE0195
:103BE00001960E94C90FCE0107960E94C90F89CF86
:103BF000883509F0D2CD18861F821A8619861C8650
:103C00001B866EEB71E0CE0107960E94740F0E9436
:103C10003E0997FD12C08032910579F08A309105F6
:103C200061F089831A8241E050E0BE016F5F7F4FEF
:103C3000CE0107960E94360FEACF6BEE71E0CE01FF
:103C400001960E94D10FBE016F5F7F4FCE01079694
:103C50000E94DE0EF82ECE0101960E94C90FFF20B1
:103C600091F082E092E00E9411158AE092E00E94B9
:103C700011158AE00E9450080E948702CE01079623
:103C80000E94C90F8ACD63EE71E0CE0101960E94B9
:103C9000D10FBE016F5F7F4FCE0107960E94DE0EEF
:103CA000F82ECE0101960E94C90FFF2041F08EE14F
:103CB0000E94500885E90E94500887E8DBCF6EED2E
:103CC00071E0CE0101960E94D10FBE016F5F7F4F60
:103CD000CE0107960E94DE0EF82ECE0101960E94BC
:103CE000C90FF110CBCF67ED71E0CE0101960E94B4
:103CF000D10FBE016F5F7F4FCE0107960E94DE0E8F
:103D0000F82ECE0101960E94C90FF110B7CF61EDD8
:103D100071E0CE0101960E94D10FBE016F5F7F4F0F
:103D2000CE0107960E94DE0EF82ECE0101960E946B
:103D3000C90FF110A3CF6CEC71E0CE0101960E9487
:103D4000D10FBE016F5F7F4FCE0107960E94DE0E3E
:103D5000F82ECE0101960E94C90FF1108FCF67ECAB
:103D600071E0CE0101960E94D10FBE016F5F7F4FBF
:103D7000CE0107960E94DE0EF82ECE0101960E941B
:103D8000C90FF1107BCF62EC71E0CE0101960E9469
:103D9000D10FBE016F5F7F4FCE0107960E94DE0EEE
:103DA000F82ECE0101960E94C90FF11067CF64EB87
:103DB00071E0CE0101960E94D10FCE0101960E94C2
:103DC000C90F5CCF892B09F00FCDE1E0EE16F104AD
:103DD00009F00ACD81E00E945204892B09F4F6CC47
:103DE00061E086E10E94300662E370E080E090E0EE
:103DF0000E94150560E086E1F5CC892B09F01FCD06
:103E0000F1E0EF16F10409F01ACD84E10E945204AA
:103E1000892B09F406CD61E08AE10E94300662E355
:103E200070E080E090E00E94150560E08AE105CD39
:103E3000892B09F02FCD21E0E216F10409F02ACDFB
:103E400085E10E945204892B09F416CD61E088E1D6
:103E50000E94300662E370E080E090E00E94150569
:103E600060E088E115CD617081CA8FE594E00C9423
:103E7000C90FFB01DC0105900D920020E1F70895C8
:103E8000FC0105900020E9F7809590958E0F9F1F0B
:103E900008950E948B1FA59F900DB49F900DA49F25
:103EA000800D911D112408952F923F924F925F92A1
:103EB0006F927F928F929F92AF92BF92CF92DF923A
:103EC000EF92FF920F931F93CF93DF93CDB7DEB79F
:103ED000CA1BDB0B0FB6F894DEBF0FBECDBF099433
:103EE0002A88398848885F846E847D848C849B848A
:103EF000AA84B984C884DF80EE80FD800C811B8198
:103F0000AA81B981CE0FD11D0FB6F894DEBF0FBEC6
:103F1000CDBFED010895A29FB001B39FC001A39F43
:103F2000700D811D1124911DB29F700D811D1124F2
:103F3000911D0895DB018F939F930E94491FBF91AC
:103F4000AF91A29F800D911DA39F900DB29F900DE8
:103F50001124089597FB072E16F4009407D077FDDF
:103F600009D00E94ED1F07FC05D03EF49095819585
:103F70009F4F0895709561957F4F0895A1E21A2E85
:103F8000AA1BBB1BFD010DC0AA1FBB1FEE1FFF1FFD
:103F9000A217B307E407F50720F0A21BB30BE40B4D
:103FA000F50B661F771F881F991F1A9469F7609594
:103FB0007095809590959B01AC01BD01CF0108954E
:103FC000EE0FFF1F0590F491E02D09940E948B1FC6
:103FD000B7FF0895821B930B0895AA1BBB1B51E1E9
:103FE00007C0AA1FBB1FA617B70710F0A61BB70B69
:103FF000881F991F5A95A9F780959095BC01CD010E
:1040000008950F931F93CF93DF938230910510F49F
:1040100082E090E0E0916F04F091700430E020E0E5
:10402000B0E0A0E0309799F42115310509F44AC0B9
:10403000281B390B24303105D8F58A819B81611505
:10404000710589F1FB0193838283FE0111C04081D8
:1040500051810281138148175907E0F04817590729
:1040600099F4109761F012960C93129713961C9383
:104070003296CF01DF91CF911F910F910895009358
:104080006F0410937004F4CF2115310551F04217DD
:10409000530738F0A901DB019A01BD01DF01F801E6
:1040A000C1CFEF01F9CF9093700480936F04CDCF0F
:1040B000FE01E20FF31F819391932250310939835E
:1040C0002883D7CF20916D0430916E04232B41F4C7
:1040D0002091390130913A0130936E0420936D04A0
:1040E00020913701309138012115310541F42DB768
:1040F0003EB740913B0150913C01241B350BE091B0
:104100006D04F0916E04E217F307A0F42E1B3F0B31
:104110002817390778F0AC014E5F5F4F2417350739
:1041200048F04E0F5F1F50936E0440936D048193CF
:1041300091939FCFF0E0E0E09CCFCF93DF93009787
:10414000E9F0FC01329713821282A0916F04B091C2
:104150007004ED0130E020E01097A1F4208131815E
:10416000820F931F20916D0430916E042817390738
:1041700009F061C0F0936E04E0936D04DF91CF917C
:104180000895EA01CE17DF07E8F54A815B819E01B9
:1041900041155105B1F7E901FB83EA834991599132
:1041A000C40FD51FEC17FD0761F480819181029641
:1041B000840F951FE90199838883828193819B8372
:1041C0008A83F0E0E0E012968D919C91139700971E
:1041D000B9F52D913C911197CD010296820F931F55
:1041E00020916D0430916E042817390739F6309705
:1041F00051F51092700410926F04B0936E04A09366
:104200006D04BCCFD383C28340815181840F951F3D
:10421000C817D90761F44E5F5F4F88819981480FB5
:10422000591F518340838A819B8193838283211507
:10423000310509F0B0CFF0937004E0936F049ECF86
:10424000FD01DC01C0CF13821282D7CFB0E0A0E025
:10425000ECE2F1E20C94561F8C01009751F4CB0173
:104260000E9401208C01C801CDB7DEB7E0E10C94BB
:10427000721FFC01E60FF71F9C0122503109E21763
:10428000F30708F49DC0D901CD91DC911197C617B1
:10429000D70798F0C530D10530F3CE0104978617C3
:1042A000970708F3C61BD70B2297C193D1936D9341
:1042B0007C93CF010E949D20D6CF5B01AC1ABD0A32
:1042C0004C018C0E9D1EA0916F04B0917004512C76
:1042D000412CF12CE12C109731F580916D049091D7
:1042E0006E048815990509F05CC04616570608F05B
:1042F00058C08091370190913801009741F48DB7F3
:104300009EB740913B0150913C01841B950BE817EF
:10431000F90708F055C0F0936E04E0936D04F901BD
:1043200071836083A0CF8D919C91119712966C90B0
:10433000129713967C901397A815B90559F56C013F
:1043400042E0C40ED11CCA14DB0420F1AC014A19AE
:104350005B09DA011296159780F0628273825183AD
:104360004083D9016D937C93E114F10471F0D7017E
:104370001396FC93EE93129776CF22968C0F9D1F87
:10438000F90191838083F301EFCFF0937004E09300
:104390006F0469CF4816590608F42C017D01D3013A
:1043A0009ACFCB010E9401207C01009749F0AE0119
:1043B000B8010E94E821C8010E949D20870153CFC7
:1043C00010E000E050CF81E090E0F8940C940122DE
:1043D000FB01DC0102C001900D9241505040D8F722
:1043E0000895FB01DC018D91019080190110D9F332
:1043F000990B0895FB01DC0101900D920020E1F77B
:10440000089511E0C1E9D1E004C0FE010E94E01F5F
:0C4410002196C239D107C9F7F894FFCFFC
:10441C00FFFFFFFF00E100000000000001000100B1
:10442C00010001000100010000C180810000000DAD
:10443C00070A040809050631323334353637383962
:10444C00414243444546470000710480000000008F
:10445C0000DC0EDC0EDC0E8C0E880EE80C0000006E
:10446C0000760C1A0C180C8C0E880EA202B70900E0
:10447C000000008F036D06A5039202EC03AA03C88B
:10448C000300000000EC04AC047B04000000008C72
:10449C00070508CA07AF07000000009402EB0D20C7
:1044AC00505245535345442E0020484F4C442E0047
:1044BC002052454C45415345442E002049444C451F
:1044CC002E0053545257484C5F424947000A003063
:1044DC00376532656534332D336132312D343864B0
:1044EC00342D613139332D6638623133653534659D
:1044FC00633264004E0049004A00500058004D657C
:10450C007373616765207265636569766564203ACB
:10451C0020006D637574797065006B656570616CF6
:04452C006976650047
:00000001FF
